:020000040800F2
:1000000010040020D9000008FF00000801010008CA
:1000100003010008050100080701000800000000B6
:1000200000000000000000000000000009010008BE
:100030000B010008000000000D0100083D0D000844
:1000400075020008790200087B02000877020008A8
:10005000E50600080000000093010008A110000858
:10006000A3100008390D00083B0D0008DB01000853
:10007000DD010008DF010008E1010008510D000862
:10008000530D0008550D0008650D0008670D0008A8
:10009000690D00082505000885020008FD0E00080E
:1000A000250F000800000000000000000000000014
:1000B0000000000091010008D901000811010008AA
:1000C0000448854600F052F800480047A512000891
:1000D000C046C046100400200E480F4901600F487A
:1000E0000F4901600F481049016010481049016034
:1000F0000C48104901601048804710480047FEE74F
:10010000FEE7FEE7FEE7FEE7FEE7FEE7FEE7FEE7C7
:10011000FEE700001030004010005FA0DC0300404C
:1001200001005FA000100240000080005C1002404F
:1001300060005FA000000000410D0008C100000841
:1001400030B50B46014600202022012409E00D466F
:10015000D5409D4205D31D469540491B25469540F7
:1001600040191546521E002DF1DC30BD064C01250C
:10017000064E05E0E36807CC2B430C3C984710344F
:10018000B442F7D3FFF7A0FF94140008B41400089A
:100190007047704770B50446002515E0FF22F53220
:1001A00002210B4800F00AFAFF22F5320421084828
:1001B00000F004FAFF22F5320821054800F0FEF9AC
:1001C000044800F00EF86D1CA542E7DB70BD00008E
:1001D0000002024088130000704770477047704764
:1001E00070470021002200BF09E005E0002200E086
:1001F000521C642AFCD3401E0028F7D1491C6429F4
:10020000F3D3704770B54D88022D04D1056A0E886E
:100210003543056216E04D88012D08D1056A0E8828
:10022000B5430562056C0E88354305640AE04D88C8
:10023000002D07D1056A0E88B5430562056C0E884E
:10024000B5430564036E002210E0012494400D883C
:100250002540002D09D056000325B5401E46AE436B
:1002600033468D885600B5402B43521C102AECD3E0
:10027000036670BD704770477047704710B500F057
:1002800083FB10BD704770B5002419E02146B031E2
:10029000C8B2002100F008F90021084600F004F976
:1002A0000021102000F000F9002505E001210020C8
:1002B00000F0FAF8681CC5B2802DF7DB601CC4B2F0
:1002C000082CE3DB70BD10B50446002C03D10021DF
:1002D000A62000F0E9F8012C03D10021A72000F0AE
:1002E000E3F810BD10B50446002C07D10021C8204A
:1002F00000F0DAF80021A12000F0D6F8012C07D197
:100300000021C02000F0D0F80021A02000F0CCF89F
:1003100010BD10B500218D2000F0C6F8002110207E
:1003200000F0C2F80021AE2000F0BEF810BD10B5FC
:1003300000218D2000F0B8F80021142000F0B4F85E
:100340000021AF2000F0B0F810BD10B50021AE20A4
:1003500000F0AAF80021084600F0A6F800211020BD
:1003600000F0A2F80021402000F09EF80021B82003
:1003700000F09AF80021812000F096F80021FF207B
:1003800000F092F80021A12000F08EF80021A620B4
:1003900000F08AF80021A82000F086F800213F2014
:1003A00000F082F80021C82000F07EF80021D32060
:1003B00000F07AF80021084600F076F80021D520F8
:1003C00000F072F80021802000F06EF80021D820A3
:1003D00000F06AF80021052000F066F80021D9201D
:1003E00000F062F80021F12000F05EF80021DA2030
:1003F00000F05AF80021122000F056F80021DB200E
:1004000000F052F80021302000F04EF800218D203D
:1004100000F04AF80021142000F046F80021AF2037
:1004200000F042F8FFF72FFF0021AF2000F03CF86A
:100430000020FFF748FF0020FFF754FFFFF769FF98
:10044000FFF775FF10BD70B504460D462946B03163
:10045000C8B2002100F028F8F02121400911084617
:100460001030002100F020F82007000F002100F0DC
:100470001BF870BDF7B5074615460026002408E0B6
:100480000120A0402840002802D0802020410643BF
:10049000641C082CF4DB38460199FFF7D4FF0121D6
:1004A000304600F001F8FEBD70B505460C4600F080
:1004B000D3FD782000F0BAFD002C03D0402000F0DE
:1004C000B5FD02E0002000F0B1FD284600F0AEFDD1
:1004D00000F0D8FD70BD0000C221094A91630028D8
:1004E00006D11146C96B40221143054AD16305E08C
:1004F0000349C96BBF221140014AD1637047000014
:10050000C0030040C121064A91631146C96BF8221D
:100510001140034AD1631146C96B0143D16370474F
:10052000C003004070470000002904D00268802307
:100530001A43026003E00268014B1A4002607047F0
:100540007FFF0000002904D0426980231A434261E2
:1005500003E04269014B1A40426170477FFF00008F
:10056000426933239A4342618A880B881A434B8835
:100570001A4343691A434261704710B5002A03D0F9
:1005800003680B43036004E00368CC43A4B2234038
:10059000036010BD10B502686F241346A3431A46CA
:1005A0000B884C8823438C8823431A4302608B6852
:1005B0004360CB68C360CB88836110BD70B50346D0
:1005C000012400200AE00D462540002D03D08500BF
:1005D0001E46303672516400451CE8B20828F2DB32
:1005E00070BD0000002905D0054A12680243044B83
:1005F0001A6004E0024A12688243014B1A60704795
:1006000000300040002807D0074909680122D205C0
:100610001143054A116006E0034909680122D20529
:100620009143014A11607047000002400549096882
:10063000072212059143034A1160114609680143DC
:100640001160704700000240002905D0054A126879
:100650000243044B1A6004E0024A12688243014BD1
:100660001A60704700000240054909680722120518
:100670009143034A116011460968014311607047B4
:100680000030004000B50246FF2000F023F9002AA8
:1006900006D007484069402108430549486105E004
:1006A00003484069402188430149486100BD00007A
:1006B0000030004000B50246FF2000F00BF9002A90
:1006C00006D007484069202108430549486105E0F4
:1006D00003484069202188430149486100BD00006A
:1006E000003000407047000000B50246FF2000F0D7
:1006F000F1F8002A07D0084840690121C9030843DE
:100700000549486106E0044840690121C90388435E
:100710000149486100BD00000030004000B50246BC
:10072000FF2000F0D7F8002A06D0074840690221D0
:1007300008430549486105E00348406902218843B0
:100740000149486100BD00000030004000B502468C
:10075000FF2000F0BFF8002A06D0074840690121B9
:1007600008430549486105E00348406940084000E6
:100770000149486100BD00000030004070B50446EA
:10078000FF2000F0A7F82F4884423FD00126012027
:1007900001E07600401C2C49C9698907890F491C72
:1007A0008142F6D22849C969FF2212021140090A82
:1007B00048003146FFF7C4FC40280CD3224840696A
:1007C0000321090388432049486108464069891488
:1007D00008431D4948611C4845690721C90128464D
:1007E0008843054628462043054617484561406929
:1007F0008021084314494861084640698021084027
:10080000002801D0002070BD0120FCE70E4840699F
:100810000321090388430C4948610846406989144B
:1008200008430949486108464069802188430649D0
:1008300048610846406980210840002800D1E2E76D
:100840000120E0E77FFF00000030004000B50246D5
:10085000012A06D10D480069042108430B490861AB
:1008600012E0FF2000F036F80848006904218843B0
:100870000649086106488069602188430449886107
:10088000084680691043886100BD000000E000E078
:1008900000300040002806D00649096903221143B0
:1008A000044A116105E00349096989088900014A80
:1008B0001161704700E000E0411E044A914203D8F4
:1008C000034A51610021916170470000FFFFFF0062
:1008D00000E000E00146402903DB0348C16000203E
:1008E00070470120FCE700000030004000B58DB0EB
:1008F0001021684681850221C185002101860BA94E
:100900001F48FFF77FFC2021684681840221C184B3
:100910000021018509A91A48FFF774FC0121890209
:10092000684681830221C1830021018407A91448FC
:10093000FFF768FC0121C902684681820221C18259
:100940000021018305A90E48FFF75CFC8021684661
:1009500081810221C1810021018203A90948FFF799
:1009600051FCFF210131684681800221C1800021B4
:10097000018101A90348FFF745FC0DB000BD00004F
:10098000001201400010014010B5FFF7AFFF00F06A
:100990000DF800F08BF800F0ABF800F079F900F0FA
:1009A0001DF900F0B9F800F01FF810BD10B50C48A3
:1009B000006A062108430A4908620A48006A0921B8
:1009C00009030843074908620320FFF79BFD002045
:1009D000FFF782FD00210420FFF704FE10BD000098
:1009E000001001400011014000B587B0FF20FFF763
:1009F00071FF01210802FFF727FE002201212A488A
:100A0000FFF7DCFD1922520102212748FFF7D6FD2E
:100A10004B22D20004212448FFF7D0FD6422082194
:100A20002148FFF7CBFD002210211F48FFF7C6FD2C
:100A3000002220211C48FFF7C1FD002240211A4856
:100A4000FFF7BCFD002280211748FFF7B7FD00210A
:100A50006846018281817D21C90041820E20059076
:100A60000020069000216846C18103A90E48FFF7C7
:100A700091FD2021684681800021C180018101A96A
:100A80000948FFF76DFD00210748FFF75BFD0022D5
:100A9000FF2101310448FFF770FD01210248FFF7F3
:100AA00043FD07B000BD00000002024010B5FF206A
:100AB000FFF710FF0020FFF7FDFD0020FFF746FEC7
:100AC0000120FFF72BFE0120FFF7DCFD0120FFF7DF
:100AD0000BFE0648FFF752FE0020FFF7C5FD002081
:100AE000FFF7A4FD0120FFF78DFD10BD7FFF000083
:100AF00010B5FF20FFF7EEFE0020FFF7A7FE7D20D8
:100B0000C001FFF7D9FE0021481E00F053FB012071
:100B1000FFF7C0FE10BD000000B585B00121042024
:100B2000FFF792FD002168464181FF2101310181DB
:100B300000218181274901820021C18102A9264823
:100B400000F0C8F9002168468180C18001A92248CF
:100B500000F038F90021204800F026F9022168460B
:100B600001800021418069461B4800F05DF90021A9
:100B7000194800F0A1F950220221174800F086F927
:100B800001221146144800F041F9002204211248C4
:100B900000F03CF9002208210F4800F037F901224B
:100BA00002210D4800F032F9002220210A4800F00D
:100BB000EDF800224021084800F0E8F8002210215A
:100BC000054800F0E3F80021034800F0D1F805B033
:100BD00000BD0000E03100008001024000B587B098
:100BE0002021684681820121C1820021018305A95B
:100BF0002448FFF707FB4021684681810121C1811C
:100C00000021018203A91F48FFF7FCFA01211020EF
:100C1000FFF71AFD022168460180C90141800021C9
:100C20008180012002906846C1806946164800F024
:100C3000CFF90121C903144800F0E4F9012211465B
:100C4000114800F0B7F9002280210F4800F07EF92A
:100C5000002240210C4800F079F90321172000F010
:100C6000A9FA1720002805DBC206D20E0121914007
:100C7000064A116000BF0121034800F059F907B08E
:100C800000BD0000001001406000024000E100E0F3
:100C900000B587B00421684681820121C18200210C
:100CA000018305A92148FFF7ADFA08216846818133
:100CB0000121C1810021018203A91C48FFF7A2FA8A
:100CC00001214020FFF7C0FC19480090E1204002BC
:100CD0000190012002906946164800F009FA0022AE
:100CE0000121144800F0F7F900220421114800F016
:100CF000F2F9002202210F4800F0EDF900228021D4
:100D00000C4800F0D1F9002240210A4800F0CCF94B
:100D10000021084800F012FA0121064800F032FADA
:100D20000121044800F01CFA07B000BD0012014088
:100D30000048E801200002407047704770470000FB
:100D40000120C006014988607047000000ED00E006
:100D50007047704710B50721014800F006F810BD34
:100D600080010240704770477047C16070470000C3
:100D7000002904D0026880231A43026003E002685D
:100D8000014B1A40026070477FFF000010B5002A37
:100D900003D083690B43836104E08369CC43A4B22D
:100DA0002340836110BD0000002904D002680123A4
:100DB0001A43026003E00268014B1A400260704768
:100DC000FEFF000010B54B88302B00D100BF4B88D0
:100DD000082B02D00B88042B00D100BF03689AB205
:100DE0003C241346A3431A46074B984205D14B882F
:100DF000082B06D04B881A4303E04B880C8823430A
:100E00001A43026010BD00000001024010B5002A24
:100E100003D083690B43836104E08369CC43A4B2AC
:100E20002340836110BD000010B54B88022B02D017
:100E30000B88022B00D100BF4B88012B02D00B88FE
:100E4000012B00D100BF02680F24E4021346A34324
:100E50001A460D4B984205D10B88022B02D04B88C5
:100E6000022B08D1084B98420BD00B88012B08D0DD
:100E70004B88012B05D00B885B034C88E40223438D
:100E80001A43026010BD000000010240022900D197
:100E900000BF012900D100BF064B984203D00229B0
:100EA00001D1026105E0034B984202D1012900D132
:100EB000426170470001024010B50A4601680124F2
:100EC000E4040B46A34319460B461343194601603D
:100ED00010BD000010B50268074B1A400B888C88C3
:100EE00023434C882343CC88640123431A43026084
:100EF0000B898360436010BD9DF8FFFF10B5012191
:100F0000064800F04DF8002802D00120044908707E
:100F10000121024800F007F810BD00006000024007
:100F200000000020704742680A434260704700009A
:100F3000002904D0026880231A43026003E002689B
:100F4000014B1A40026070477FFF000010B5002A75
:100F500003D003690B43036104E00369CC43A4B2EB
:100F60002340036110BD0000002904D00268202343
:100F70001A43026003E00268014B1A4002607047A6
:100F8000DFFF0000002904D0026810231A4302602A
:100F900003E00268014B1A4002607047EFFF000057
:100FA0000246002053680B40002B01D0012000E0D6
:100FB0000020704710B5002A03D003690B4303617A
:100FC00004E00369CC43A4B22340036110BD0000D8
:100FD00030B5024610680A4B18400B884C882343F2
:100FE0008C882343184310609068000A0002CB8865
:100FF0008C686400FE252C4023431843906030BD6C
:10100000FC3FFFFF10B50A46074B984200D100E0B5
:1010100000BF01680324A4030B46A34319460B46F3
:1010200013431946016010BD6000024010B504462C
:101030002146064800F00EF800BF05480078002859
:10104000FBD000200249087010BD00006000024083
:1010500000000020C160704710B501210748FFF76C
:1010600083FF00BF064800780028FBD00020044919
:101070000870C82000F0F8F810BD000060000240C1
:101080000000002010B501210348FFF77BFF034853
:1010900000F0EAF810BD00006000024014050000F6
:1010A000704770474160704710B5002A03D003694C
:1010B0000B43036104E00369CC43A4B22340036102
:1010C00010BD0246002053680B40002B01D00120C8
:1010D00000E00020704710B5002A03D003690B43DD
:1010E000036104E00369CC43A4B22340036110BD53
:1010F00070B504460D462668F608F600A868064353
:101100002660A868002808D1206810218843206044
:1011100020686968084320600DE069682868FFF767
:101120000FF806460448864204D920681021084377
:1011300020603609A66070BDFFFF000010B50A46AA
:10114000064B984209D101680324A4030B46A3432C
:1011500019460B4613431946016010BD201002408A
:10116000002904D0026840231A43026003E00268A9
:10117000014B1A4002607047BFFF0000CA05D20D44
:10118000C2607047002904D0026880231A430260BD
:1011900003E00268014B1A40026070477FFF0000C5
:1011A00010B5024A024900F050F810BD791200084B
:1011B0000800002010B5002819DB1A4A03231B027F
:1011C000D21883089B00D2588307DC0EFF23A3406C
:1011D0009A438B071B0E8407E40EA3401A43114B5E
:1011E000032424021B198408A4001A5118E00E4A93
:1011F00003071B0F083B9B089B00D2588307DC0E9C
:10120000FF23A3409A438B071B0E8407E40EA340E1
:101210001A43054B0407240F083CA408A4001A51E4
:1012200010BD000000E100E01CED00E002E008C895
:10123000121F08C1002AFAD170477047002001E050
:1012400001C1121F002AFBD17047F8B516460F46A0
:101250000446002503E03946B047641C6D1C207825
:101260000028F8D12846F8BD00BF0146421E90B2C2
:101270000029FAD17047000070B504460D46E1B26E
:101280000748FFF77BFF00BF02210548FFF719FF62
:101290000028F9D002210248FFF704FF204670BD64
:1012A00020000240FEF7EAFFFFF74FF8D8E06D4C50
:1012B0006DA0FFF775FF70A0FFF772FF0320FEF728
:1012C00069FFFF2205214020FFF7D4F800206E4976
:1012D0008872012048710871C8726C49C87108721F
:1012E000642202216A48FFF769F9FF22F5320421DE
:1012F0006748FFF763F9E122920008216448FFF78D
:101300005DF92046FEF76DFF01205F4988720020DD
:10131000487101200871C8725C49C8710872C822FE
:1013200002215B48FFF74AF9FF22F53204215848B1
:10133000FFF744F91922520108215548FFF73EF9F9
:101340002046FEF74EFF01204F4988724871002069
:1013500008710120C8724D49C8710872FF222D32F0
:1013600002214B48FFF72AF9FF22F53204214848B1
:10137000FFF724F9AF22920008214548FFF71EF934
:101380002046FEF72EFF01203F4988724871087100
:101390000020C87201203D49C8710872FF229132B5
:1013A00002213B48FFF70AF9FF22F53204213848B1
:1013B000FFF704F94B22D20008213548FFF7FEF869
:1013C0002046FEF70EFF01202F49887248710871F0
:1013D000C87200202D49C87101200872FF22F53221
:1013E00002212B48FFF7EAF8FF22F53204212848B2
:1013F000FFF7E4F8FF22F53208212548FFF7DEF871
:101400002046FEF7EEFE01201F49887248710871E0
:10141000C8721E49C87100200872192252010221A7
:101420001B48FFF7CBF8FF22F53204211848FFF7DD
:10143000C5F8FF222D3208211548FFF7BFF82046D6
:10144000FEF7CFFE012112488038FFF791FC2046BD
:10145000FEF7C7FE00210E488038FFF789FC00BF69
:1014600025E70000204E0000746573745F636F6DA4
:101470006D616E640A000000636865636B5F616C98
:1014800061726D730A0000000012014000100140FB
:1014900000020240B4140008000000200C0000000C
:1014A0002C120008C01400080C00002004040000E6
:1014B0003C120008000000000000000000000000D6
:04000005080000C12E
:00000001FF
